:100000000C945D010C9485010C9485010C94850180
:100010000C9485010C9485010C9485010C94850148
:100020000C9485010C9485010C9485010C94850138
:100030000C9485010C9485010C9485010C94850128
:100040000C94EC220C9485010C94BA220C9494220A
:100050000C9485010C9485010C9485010C94850108
:100060000C9436230C948501000000002400270026
:100070002A0000000000250028002B0000000000DE
:1000800023002600290004040404040404040202DA
:100090000202020203030303030301020408102007
:1000A0004080010204081020010204081020000012
:1000B0000008000201000003040700000000000027
:1000C000000053697374656D6120696E69636961CD
:1000D0006C697A61646F20636F7272656374616DBD
:1000E000656E74650046616C6C6F20616C20496EB2
:1000F000696369616C697A617220656C2053656E11
:10010000736F7220564C35334C305800496E74650D
:100110006C656B74726F6E205341202D203230322B
:10012000300043617274656C2064697374616E633E
:1001300069616D69656E746F20436F7669642D31F6
:1001400039202D202573002050726573696F6E650C
:10015000207061726120636F6E666967757261728B
:1001600020656C2070756E746F2064652070656CFE
:100170006967726F20656E202564206D6D004E7575
:1001800065766F732070756E746F73202D3E2073CB
:10019000656775726F203D2025642C207072656341
:1001A000617563696F6E203D2025642C2070656C3D
:1001B0006967726F203D202564004C61206D617875
:1001C000696D612064697374616E63696120706533
:1001D000726D6974696461206573202564004861EB
:1001E00062696C69746163696F6E2062757A7A65A1
:1001F00072203D202564007B22696E666F223A22C0
:100200006C6F67222C2274696D65223A256C752CFF
:1002100022726177223A25642C2266696C746572B9
:100220006564223A25642C227374617465223A2530
:10023000647D004D696E3A302C207261773A2564F6
:100240002C2066696C74657265643A25642C207391
:10025000746174653A25642C2064616E6765723A36
:1002600025642C204D61783A38313930005375655A
:100270006C746520656C2070756C7361646F72209E
:100280007061726120636F6E74696E756172206354
:100290006F6E206C612063616C6962726163696F6B
:1002A0006E2E0053656E736F72206572726F7220CE
:1002B00054494D454F555400992411241FBECFEF8A
:1002C000D8E0DEBFCDBF12E0A0E0B1E0E8E0F0E7AB
:1002D00002C005900D92A239B107D9F724E0A2E936
:1002E000B2E001C01D92AD3EB207E1F711E0CDE5ED
:1002F000D1E004C02197FE010E94FC35CC35D10726
:10030000C9F70E946F260C9402380C9400004F929B
:100310005F926F927F928F929F92AF92BF92DF9285
:10032000EF92FF920F931F93CF93DF93EC018B011A
:1003300088818B32C1F18D32B9F52196EE24E39498
:10034000888190ED980F9A3010F08E32E1F560E0E0
:1003500070E0CB01FE012191A0ED8A2E820E39E0E2
:10036000381520F16A3929E97207820729E19207D5
:10037000D0F5AAE0B0E09B01AC010E94A134912C21
:10038000B12CA12C240135014094509460947094B8
:10039000461657066806790630F1680D791D8A1DE4
:1003A0009B1DEF01D7CF2196E12CCACF21111BC095
:1003B000F80160837183828393838AE0E11001C036
:1003C00088E0F8018483DF91CF911F910F91FF9016
:1003D000EF90DF90BF90AF909F908F907F906F9045
:1003E0005F904F900895F12CEAE08E2E912CA12C75
:1003F000B12C61157105F0E88F07910540F0A5015A
:1004000094010E94EB34CA01B901F394F2CFFE01CA
:10041000299130ED320F3A3010F4F394F8CF2E32A8
:10042000F1F4EF012196FE012196208150EDD52EA9
:10043000D20E29E02D1598F06C3C3CEC73073CE0A3
:100440008307910580F7AAE0B0E09B01AC010E9410
:10045000A1346D0D711D811D911DFA94E4CF208191
:100460002F7DD0E0C0E0253409F04FC021812D322E
:10047000A9F53296BB24B394DF01D0E0C0E02F2D64
:100480000F2C000C330B4AE0A42EFD01DD9040ED53
:100490004D0D4A30A8F5AC9EA001AD9E500D112423
:1004A000CD2DDD0CDD0BE097C40FD51FAE01420F43
:1004B000531F473251054CF3BB20B9F080E090E068
:1004C000A0E0B0E8E11003C080E090E0DC01F801BA
:1004D00080839183A283B3838CE074CF2B3219F095
:1004E0003196B12CC9CF3296FCCF80E090E0A0E8E5
:1004F000BFEFE110ECCF80E090E0A0E8BFE7E7CFEE
:10050000BB2019F0D195C195D109208121115BCF74
:10051000CF0DD11DF7FCDA950E944D331C161D0638
:10052000E4F4F12CC0FF0CC024E0F29EF001112491
:10053000E35AFE4F20813181428153810E94AE33C4
:10054000D595C795F394209769F7E1109058F80175
:100550006083718382839383BFCFD195C195D10985
:10056000F12C209791F3C0FF0CC024E0F29EF00123
:100570001124EB5BFE4F20813181428153810E9427
:10058000AE33D595C795F394ECCF089508950895AB
:1005900080E991E00895AF92BF92CF92DF92EF92FF
:1005A000FF920F931F93CF93DF936C017B018B011D
:1005B000040F151FEB015E01AE18BF08C017D1076D
:1005C00059F06991D601ED91FC910190F081E02DF7
:1005D000C6010995892B79F7C501DF91CF911F914C
:1005E0000F91FF90EF90DF90CF90BF90AF90089564
:1005F000FC01538D448D252F30E0842F90E0821B29
:10060000930B541710F0CF96089501970895FC01AD
:10061000918D828D981761F0A28DAE0FBF2FB11D05
:100620005D968C91928D9F5F9F73928F90E008955D
:100630008FEF9FEF0895FC01918D828D981731F017
:10064000828DE80FF11D858D90E008958FEF9FEF6B
:100650000895FC01918D228D892F90E0805C9F4F41
:10066000821B91098F73992708958EEE93E00E9463
:10067000290321E0892B09F420E0822F089580E0EE
:1006800090E0892B29F00E94350381110C94000021
:100690000895FC01A48DA80FB92FB11DA35ABF4F17
:1006A0002C91848D90E001968F739927848FA68971
:1006B000B7892C93A089B1898C91837080648C93C5
:1006C000938D848D981306C00288F389E02D808174
:1006D0008F7D80830895EF92FF920F931F93CF93A6
:1006E000DF93EC0181E0888F9B8D8C8D98131AC06D
:1006F000E889F989808185FF15C09FB7F894EE8954
:10070000FF896083E889F9898081837080648083B0
:100710009FBF81E090E0DF91CF911F910F91FF90FB
:10072000EF900895F62E0B8D10E00F5F1F4F0F73A3
:100730001127E02E8C8D8E110CC00FB607FCFACF5E
:10074000E889F989808185FFF5CFCE010E944903B0
:10075000F1CFEB8DEC0FFD2FF11DE35AFF4FF0822F
:100760009FB7F8940B8FEA89FB8980818062CFCF95
:10077000CF93DF93EC01888D8823B9F0AA89BB89D8
:10078000E889F9898C9185FD03C0808186FD0DC0C3
:100790000FB607FCF7CF8C9185FFF2CF808185FFE4
:1007A000EDCFCE010E944903E9CFDF91CF910895AB
:1007B000833081F028F4813099F08230A9F00895D7
:1007C0008730A9F08830C9F08430B1F4809180007E
:1007D0008F7D03C0809180008F7780938000089583
:1007E00084B58F7784BD089584B58F7DFBCF8091CC
:1007F000B0008F778093B00008958091B0008F7D16
:10080000F9CFCF93DF93282F30E0F901E255FF4F66
:100810008491F901E656FF4FD491F901EA57FF4F51
:10082000C491CC23A1F081110E94D803EC2FF0E0F9
:10083000EE0FFF1FE458FF4FA591B491EC91ED230B
:1008400081E090E009F480E0DF91CF91089580E0AD
:1008500090E0FACF1F93CF93DF93282F30E0F90178
:10086000E255FF4F8491F901E656FF4FD491F9010B
:10087000EA57FF4FC491CC23A9F0162F81110E9493
:10088000D803EC2FF0E0EE0FFF1FEE58FF4FA591BD
:10089000B4918FB7F894EC91111108C0D095DE2374
:1008A000DC938FBFDF91CF911F910895DE2BF8CF9E
:1008B000CF93DF9386E00E940104EC0161E0892B75
:1008C00009F060E086E00E942A0481E0CD2B09F463
:1008D00080E0DF91CF910895CF93DF9390E0FC010A
:1008E000E656FF4F24918A579F4FFC01849188233D
:1008F000C9F090E0880F991FFC01E859FF4FA591BE
:10090000B491FC01EE58FF4FC591D49161110DC017
:100910009FB7F8948C91209582238C93888128230B
:1009200028839FBFDF91CF910895623051F49FB724
:10093000F8943C91822F809583238C93E8812E2B11
:10094000EFCF8FB7F894EC912E2B2C938FBFEACF7B
:100950003FB7F8948091DD029091DE02A091DF0212
:10096000B091E00226B5A89B05C02F3F19F0019673
:10097000A11DB11D3FBFBA2FA92F982F8827BC01F9
:10098000CD01620F711D811D911D42E0660F771F21
:10099000881F991F4A95D1F708958F929F92AF9221
:1009A000BF92CF92DF92EF92FF924B015C010E94C7
:1009B000A8046B017C010E94A8046C197D098E09B2
:1009C0009F09683E734081059105A8F321E0821AD2
:1009D0009108A108B10888EEC80E83E0D81EE11C7A
:1009E000F11C81149104A104B10429F7FF90EF9048
:1009F000DF90CF90BF90AF909F908F9008952FB7CA
:100A0000F8946091D9027091DA028091DB029091A2
:100A1000DC022FBF08953F924F925F926F927F92B8
:100A20008F929F92AF92BF92CF92DF92EF92FF92FE
:100A30000F931F93CF93DF9300D01F92CDB7DEB7F4
:100A4000DC012C9111969C91119712968C91129722
:100A50003091B104321309C03091B204391305C08A
:100A60003091B304381709F406C1EEEBF3E02083AC
:100A700091838283339633E0EE3EF307C1F77D0125
:100A8000D090970480919A0490919B04A0919C042B
:100A9000B0919D04892B8A2B8B2BD9F00E94A8043E
:100AA0000091BA031091BB032091BC033091BD03A8
:100AB000601B710B820B930B00919A0410919B04A5
:100AC00020919C0430919D04601771078207930761
:100AD000C8F20E94A8046093BA037093BB0380938A
:100AE000BC039093BD03E091A204F091A30430975E
:100AF00059F040919E0450919F046091A004709120
:100B0000A1048D2D0995D82E0091B8031091B90339
:100B10004D2C512C712C612C0115110509F45EC06E
:100B2000D8011C96CC901C978091980490919904C0
:100B30008436910510F41C961C92D801ED91FC911D
:100B40008280938019821A821B82DD2089F1F8014C
:100B50003696B12CA12C2191222319F13280332019
:100B600001F130E050E040E02F5F3F4F4F4F5F4FCB
:100B7000C301B2010E94BD359B01AC01832D90E001
:100B8000B0E0A0E0BC01CD016F5F7F4F8F4F9F4F62
:100B90000E94BD35A1E0B0E0AC0FBD1FAA0DBB1D8A
:100BA0008C93BFEFAB1ABB0A33E0A316B10499F6DE
:100BB000D8011D964D915C911E9712966D917C9176
:100BC0009E012F5F3F4FC801F4010995D8011C9683
:100BD000CC921C9714960D911C919ECF8091B603D8
:100BE0009091B7038C010F5F1F4F1093B7030093D1
:100BF000B6034997B4F10E94FF048090B20390902D
:100C0000B303A090B403B090B5039B01AC012819C5
:100C100039094A095B0921F421E030E040E050E065
:100C200088EE93E0089FB001099F700D189F700D2A
:100C30001124072E000C880B990B0E94EB34309383
:100C40009904209398041092B7031092B6030E945F
:100C5000FF046093B2037093B3038093B403909343
:100C6000B503F70180818093B10481818093B20440
:100C700082818093B3040F900F900F90DF91CF91FA
:100C80001F910F91FF90EF90DF90CF90BF90AF90AA
:100C90009F908F907F906F905F904F903F900895BE
:100CA0002091B502260F3327331F21323105ECF492
:100CB00020918803FC0190E080E0243069F082E01C
:100CC0000895A091B5022191AC014B565D4FA40F40
:100CD000B52FB11D2C930196861798F38091B5021C
:100CE000680F6093B50280E0089581E00895109246
:100CF000880381E0809387031092620361E082E1C0
:100D00000E942A0461E083E10E942A04E9EBF0E0FA
:100D100080818E7F808380818D7F808388E4809333
:100D2000B80085E48093BC000895CF93DF9391E0F1
:100D3000909394028823B9F0C091B800D091BA0082
:100D40008091BC008A7B8093BC0060E082E10E94BD
:100D50002A0460E083E10E942A040E947706D0936F
:100D6000BA00C093B800DF91CF9108958F929F92FF
:100D7000AF92BF92CF92DF92EF92FF920F931F93A9
:100D8000CF93DF93D091B103D13208F0D7C0182FA1
:100D9000C091B0030E94A8046B017C01809188037C
:100DA00081116BC082E080938803109387038FEFDB
:100DB0008093860310928503D0938403A0E9B3E067
:100DC000E4E6F3E080E0D81391C0109263038091D1
:100DD0006303CC0FC82BC0936303809162038130FF
:100DE00009F088C0109262030E94A8046B017C0184
:100DF000809163038093BB0080918A0390918B0361
:100E0000A0918C03B0918D03892B8A2B8B2BA1F0A1
:100E10000E94A80400918A0310918B0320918C03F7
:100E200030918D036C197D098E099F0906171707EC
:100E30002807390708F442C08091BC0083FDD8CF51
:100E400085EC8093BC000E94A8046B017C0180911A
:100E50008803823009F450C0809186038F3F09F4E3
:100E60006FC080918603803209F46CC08091860344
:100E7000803309F469C084E026C080918A03909190
:100E80008B03A0918C03B0918D03892B8A2B8B2B24
:100E900009F484CF0E94A80480908A0390908B0369
:100EA000A0908C03B0908D036C197D098E099F0969
:100EB00086169706A806B90608F070CF80918903B8
:100EC0000E94950685E010928F031092B103109254
:100ED0008E03DF91CF911F910F91FF90EF90DF90E4
:100EE000CF90BF90AF909F908F9008959D919193D8
:100EF0008F5F69CF85EEA5CF80918A0390918B0398
:100F0000A0918C03B0918D03892B8A2B8B2B09F434
:100F10009ECF0E94A80400918A0310918B03209118
:100F20008C0330918D036C197D098E099F0906177A
:100F300017072807390708F08ACFC0CF81E0C3CF51
:100F400080E0C1CF82E0BFCF83E0BDCFCF92DF9200
:100F5000EF92FF920F931F93CF93DF93D82FC62F5B
:100F6000613208F098C00E94A8046B017C01809156
:100F7000880381116BC081E080938803809387038D
:100F80009FEF90938603109285039C0F90938403A8
:100F90008093630380916303DD0FD82BD0936303A9
:100FA00080916203813009F078C0109262030E9440
:100FB000A8046B017C01809163038093BB00809146
:100FC0008A0390918B03A0918C03B0918D03892BA0
:100FD0008A2B8B2BA1F00E94A80400918A03109108
:100FE0008B0320918C0330918D036C197D098E0940
:100FF0009F09061717072807390708F448C080918A
:10100000BC0083FDD8CF85EC8093BC000E94A8046F
:101010006B017C0180918803813009F440C080918C
:1010200085038C1710F4C0918503E4E6F3E0A2E495
:10103000B3E080E08C1355C08C2FDF91CF911F91CE
:101040000F91FF90EF90DF90CF90089580918A03E9
:1010500090918B03A0918C03B0918D03892B8A2BE7
:101060008B2B09F484CF0E94A80400918A0310916D
:101070008B0320918C0330918D036C197D098E09AF
:101080009F09061717072807390708F070CF8091C6
:1010900089030E949506C0E0CFCF85EEB5CF809141
:1010A0008A0390918B03A0918C03B0918D03892BBF
:1010B0008A2B8B2B09F4AECF0E94A80400918A03DF
:1010C00010918B0320918C0330918D036C197D0955
:1010D0008E099F09061717072807390708F09ACFC6
:1010E000D6CF91919D938F5FA5CF0895E091410355
:1010F00080914003E81730F4F0E0EE5BFC4F808114
:1011000090E008958FEF9FEF0895909141038091B3
:1011100040032FEF3FEF981748F4E92FF0E0EE5B24
:10112000FC4F208130E09F5F90934103C9010895F7
:101130008091400390914103891B990B0895CF92B0
:10114000DF92EF92FF920F931F93CF93DF937C0177
:10115000CB018A0120918E03222389F0EB016B01E0
:10116000C40ED51ECC15DD0569F06991D701ED914E
:10117000FC910190F081E02DC7010995F3CF642F18
:101180000E945006C801DF91CF911F910F91FF90EF
:10119000EF90DF90CF900895CF93DF931F92CDB75C
:1011A000DEB7698320918E032223F9F02091B103E9
:1011B000203258F021E030E0FC013383228390E0BC
:1011C00080E00F90DF91CF91089580918F03E82FF9
:1011D000F0E0E057FC4F998190838F5F80938F03FD
:1011E0008093B10381E090E0ECCF61E0CE01019605
:1011F0000E945006F7CF0F931F93CF93DF93162FC4
:10120000072FC4EAD4E0998121E020938E039093C4
:10121000B00310928F031092B103682F8BE894E013
:101220000E94CC08602F8BE894E00E94CC08612FCC
:101230008BE894E00E94CC0881E00E94B606888387
:10124000DF91CF911F910F9108951F93CF93DF935B
:10125000162FC4EAD4E0998121E020938E03909365
:10126000B00310928F031092B103682F8BE894E0C3
:101270000E94CC08612F8BE894E00E94CC0881E0AA
:101280000E94B6068883DF91CF911F91089590E068
:1012900080E00895CF92DF92EF92FF926115710581
:1012A00081059105F1F0DC01CB010197A109B1099C
:1012B00030E020E06C017D01CC24CD28CE28CF2861
:1012C00039F0B695A795979587952F5F3F4FF2CF49
:1012D000322F2227822B932BFF90EF90DF90CF901D
:1012E000089590E080E0F8CFCF93DF93EC010E9467
:1012F000FF04688379838A839B83DF91CF9108956C
:101300000F931F93CF93DF93209193022F5F322F80
:1013100037703093930220FF2BC020E831FD20640A
:10132000347009F02062205FFC01EC01239600E09C
:1013300011E06485662329F070E0C8010E94CD3574
:101340006F5F6187322F369F030E30E0311D11240D
:10135000311110C01682662311F0615061873196F9
:10136000EC17FD0731F7DF91CF911F910F91089591
:1013700020E0D4CF31503683EECF4F925F926F9200
:101380007F928F92AF92BF92CF92DF92EF920F93A4
:101390001F93CF93DF933C01EB010E94A804F3015C
:1013A00027853089621B730B6A307105B0F3F8949E
:1013B000E881F98175B1716065B16E7F65B9CA84E4
:1013C0008F812C2D281B822F2F83BF844A805B8026
:1013D0001D850C85DE841F5F0F5FD3949E81388549
:1013E000A984EB844181D20120E0C32F522F322FF8
:1013F0003181442788943111380F08F43FEF8195EB
:10140000889410FD430F4795889411FD430F47952D
:10141000889412FD430F4795889413FD430F479519
:10142000889414FD430F4795889415FD430F479505
:10143000889416FD430F4795889417FD430F4795F1
:101440008894232F1111242F8C0D422F002C75B955
:1014500000C047FF65B930812227889400C000C0D2
:10146000002C65B93111390F00C0002C75B900C0CE
:1014700046FF65B908F43FEF9195889400C000C01D
:10148000002C65B900FD230F00C0002C75B900C009
:1014900045FF65B92795889401FD230F00C000C062
:1014A000002C65B92795889400C0002C75B900C040
:1014B00044FF65B902FD230F2795889400C000C042
:1014C000002C65B903FD230F00C0002C75B900C0C6
:1014D00043FF65B92795889404FD230F00C000C021
:1014E000002C65B92795889400C0002C75B900C000
:1014F00042FF65B905FD230F2795889400C000C001
:10150000002C65B906FD230F00C0002C75B900C082
:1015100041FF65B92795889407FD230F00C000C0DF
:10152000002C65B92795889400C0002C75B900C0BF
:1015300040FF65B9432F0111422F9A0D00C000C032
:10154000002C65B900C000C0002C75B900C047FF71
:1015500065B932812227889400C000C0002C65B98B
:1015600031113C0F00C0002C75B900C046FF65B9B1
:1015700008F43FEFEB0DF11D00C000C0002C65B971
:10158000D0FC230F00C0002C75B900C045FF65B921
:1015900027958894D1FC230F00C000C0002C65B9AA
:1015A0002795889400C0002C75B900C044FF65B928
:1015B000D2FC230F2795889400C000C0002C65B989
:1015C000D3FC230F00C0002C75B900C043FF65B9E0
:1015D00027958894D4FC230F00C000C0002C65B967
:1015E0002795889400C0002C75B900C042FF65B9EA
:1015F000D5FC230F2795889400C000C0002C65B946
:10160000D6FC230F00C0002C75B900C041FF65B99E
:1016100027958894D7FC230F00C000C0002C65B923
:101620002795889400C0002C75B900C040FF65B9AB
:10163000432FD110422FC19500C000C0002C65B9C6
:10164000CE0D00C000C075B900C047FF65B931813B
:101650002227889400C000C0002C65B93111380FD2
:1016600000C0002C75B900C046FF65B908F43FEF13
:101670008195889400C000C0002C65B910FD230F2F
:1016800000C0002C75B900C045FF65B92795889446
:1016900011FD230F00C000C0002C65B92795889468
:1016A00000C0002C75B900C044FF65B912FD230FBE
:1016B0002795889400C000C0002C65B913FD230F46
:1016C00000C0002C75B900C043FF65B92795889408
:1016D00014FD230F00C000C0002C65B92795889425
:1016E00000C0002C75B900C042FF65B915FD230F7D
:1016F0002795889400C000C0002C65B916FD230F03
:1017000000C0002C75B900C041FF65B927958894C9
:1017100017FD230F00C000C0002C65B927958894E1
:1017200000C0002C75B900C040FF65B9432F1111EE
:10173000422F8C0D00C000C0002C65B9119709F034
:1017400086CE20EE31E0D2010E94E135DC01CB01F2
:10175000F4E0B695A79597958795FA95D1F730E07F
:1017600020E0B901EAE94E9E040C611D5E9E600D09
:10177000711D1124650D711D860F971FA11DB11DCF
:10178000893E43E09407A105B10508F434C0885EA2
:101790009340A109B10942E0B695A7959795879521
:1017A0004A95D1F747E0849F080E211D949F200D94
:1017B000311D1124290F311D6091920270E0860FB6
:1017C000971F820F931F4091D9025091DA026091C6
:1017D000DB027091DC02292F3327420F531F611D5A
:1017E000711D4093D9025093DA026093DB0270932B
:1017F000DC028093920278940E94A804F301708B1B
:101800006787DF91CF911F910F91EF90DF90CF907D
:10181000BF90AF908F907F906F905F904F900895A2
:10182000209A08950F931F93CF93DF93CDB7DEB720
:1018300062970FB6F894DEBF0FBECDBF8C01F901E1
:10184000DC011C968C917A8369835C834B835E8375
:101850004D8390819D8791819E8792819F87813062
:10186000F1F4CE0101960E94800983E0888B1A8AE8
:10187000198AD801ED91FC910484F585E02DBE0113
:101880006F5F7F4FC801099562960FB6F894DEBF6F
:101890000FBECDBFDF91CF911F910F9108951C8690
:1018A0001B861A86198618861F82DFCF0F931F9317
:1018B000CF93DF93CDB7DEB762970FB6F894DEBF54
:1018C0000FBECDBF8C01F901DC011C968C917A838F
:1018D00069835C834B835E834D8390819D87918177
:1018E0009E8792819F878130E9F4CE0101960E9404
:1018F0008009188A1A8A198AD801ED91FC9104840A
:10190000F585E02DBE016F5F7F4FC8010995629696
:101910000FB6F894DEBF0FBECDBFDF91CF911F9100
:101920000F9108951C861B861A86198618861F82B9
:10193000E0CF90E080E00895FC01858596850895CC
:10194000CF93DF9300D000D000D0CDB7DEB7AB018E
:101950001C821D821E82DC01ED91FC910190F081C0
:10196000E02D19821A821B829E012F5F3F4FBE011C
:101970006C5F7F4F099526960FB6F894DEBF0FBEB9
:10198000CDBFDF91CF9108952F923F924F925F92FA
:101990006F927F928F929F92AF92BF92CF92DF927F
:1019A000EF92FF920F931F93CF93DF9300D000D05D
:1019B000CDB7DEB71C014A015B0186E0D1011A9662
:1019C0008C9320E836E948E15BE4CB01B4010E9446
:1019D000B83587FD86C055E7652E51E0752E65E464
:1019E000E62E61E0F62E7DE5C72E71E0D72EE0E20F
:1019F000F0E0FA83E98310E000E0A5019401D3014F
:101A00009E918E917E916E913D010E9448331816F1
:101A10007CF0F7012489358946895789C501B401CD
:101A20000E94AE334B015C0189819A81080F191F16
:101A3000A981BA81B595A795BA83A983B4E0EB1AB9
:101A4000F108C614D704C9F677247A9420E030E070
:101A5000A901C501B4010E94B83518160CF04AC09E
:101A60002CEA35EC47E257E3C501B4010E94483344
:101A700018160CF43FC0F72D84E0F8026001112421
:101A8000F12CE12C9FEF7916A9F126014E0C5F1C79
:101A9000F201E55FFE4FA5019401608171818281B1
:101AA00093810E94B83518168CF4F201E35AFE4F68
:101AB0002081318142815381C501B4010E94AE333E
:101AC0004B015C01A981BA810A1B1B0BE981FA81D8
:101AD000F595E795FA83E9837A94F4E0EF1AF10833
:101AE000D1CFE0E2F0E0FA83E98335E0732E10E035
:101AF00000E0ACCFD10119961C930E931897C50145
:101B0000B4010E94893569837A838B839C83F101B8
:101B100060837183828393832B013C0190E4C92EFF
:101B200092E4D92E9FE0E92EF12CFAE04F165104F1
:101B300061047104E0F0C701B6012AE030E040E042
:101B400050E00E94EB3469017A01D1011A968C9120
:101B50001A9781501A968C93C301B2012AE030E0A3
:101B600040E050E00E94EB3429013A01DECF698168
:101B70007A818B819C810E944D339B01AC01C50110
:101B8000B4010E941C354B015C01C701B6010E94E3
:101B90004D339B01AC01C501B4010E94AE332B0152
:101BA0003C010E9489354B015C010E944D339B0131
:101BB000AC01C301B2010E941C359B01AC010E9423
:101BC0001D350E948935860E971EA81EB91E8C14DD
:101BD0009D04AE04BF0420F5F10184829582A682A3
:101BE000B7828AE0C82ED12CE12CF12CD1011496B9
:101BF0006D917D918D919C911797A70196010E94FF
:101C0000EB34672B682B692B91F5F101828518164F
:101C100074F5248335834683578381508287E6CFCA
:101C2000D10114961D921D921D921C9217978981C5
:101C30009A81AB81BC810196A11DB11DF101808308
:101C40009183A283B3830115110559F20A97A10567
:101C5000B10538F2C80101969187808781E090E054
:101C6000A0E0B0E080839183A283B383BACF0F90CA
:101C70000F900F900F90DF91CF911F910F91FF90D8
:101C8000EF90DF90CF90BF90AF909F908F907F901C
:101C90006F905F904F903F902F900895CF93DF9378
:101CA000EC0188819981DC01ED91FC910190F0813A
:101CB000E02D09952A813B81820F931F9B838A83A4
:101CC000DF91CF910895DC018D919C91DC01ED9124
:101CD000FC910280F381E02D0994EF92FF920F9323
:101CE0001F93CF93DF93CDB7DEB766970FB6F89407
:101CF000DEBF0FBECDBF8C01CB01FE0177969F01E9
:101D00004AE0E42EF12CB7010E94CD35805D82932C
:101D1000CB010097C1F7A9014E1B5F0BBF01C801A2
:101D20000E94630EF80122813381820F931F9383F7
:101D3000828366960FB6F894DEBF0FBECDBFDF91EB
:101D4000CF911F910F91FF90EF9008958F929F92E6
:101D5000AF92BF92CF92DF92EF92FF920F931F93B9
:101D6000CF93DF93CDB7DEB766970FB6F894DEBF9B
:101D70000FBECDBF7C018E01095E1F4F68018AE056
:101D8000882E912CA12CB12CCB01BA01A501940174
:101D90000E94EB34942F852F605DF80162938F01D0
:101DA000A901692F782F411551056105710561F76A
:101DB000A6014E1B5F0BBF01C7010E94630EF70116
:101DC00022813381820F931F9383828366960FB69D
:101DD000F894DEBF0FBECDBFDF91CF911F910F9161
:101DE000FF90EF90DF90CF90BF90AF909F908F903B
:101DF0000895EF92FF920F931F93CF93DF93EC011F
:101E00007B0162E20E944E0E8701F80161918F0111
:101E1000662391F0E9E9F1E0F280FF2049F0329683
:101E200081816813F9CF6CE5CE010E944E0E6F2DB3
:101E3000CE010E944E0EE9CF62E2CE01DF91CF913A
:101E40001F910F91FF90EF900C944E0E80339CF0F9
:101E50008A3324F08F3524F08B3724F481E0089501
:101E600081344CF08B35D4F393ED980F81E09230B0
:101E7000B0F380E008958B32B9F7F0CFCF92DF92C4
:101E8000EF92FF920F931F93CF93DF93EC0189851D
:101E9000811130C00E811F810E94FF04D801189665
:101EA0006D937D938D939C931B97D801ED91FC913D
:101EB0000284F385E02DC801099597FF25C00E9493
:101EC000FF04F801C084D184E284F3846C197D0995
:101ED0008E099F09C480D580E680F7806C157D054A
:101EE0008E059F0510F38FEF9FEF97FD80E08887A9
:101EF00081E089878885DF91CF911F910F91FF90B5
:101F0000EF90DF90CF9008959927EFCF1F93CF9355
:101F1000DF93EC01162F0E943E0F811306C0198635
:101F200081E0DF91CF911F91089580E0FACFCF93A8
:101F3000DF93EC01CE010E943E0F8B3034F48930E8
:101F400044F4882341F081E00DC08D3011F08032DF
:101F5000D1F71986EFCFC45BDF4F81E090E0998322
:101F6000888380E0DF91CF910895CF92DF92EF9246
:101F7000FF92CF93DF9300D000D01F92CDB7DEB792
:101F8000FC01892B39F094819F77963081F030F4F1
:101F90009430E8F460E070E0CB010DC0983039F087
:101FA0009C30C1F7C080D180E280F38021C0608185
:101FB0007181828193810F900F900F900F900F90FD
:101FC000DF91CF91FF90EF90DF90CF9008958081C7
:101FD00091811D82BE016F5F7F4F0E9487018D81BD
:101FE0008830F9F08C30B1F6C980DA80EB80FC8063
:101FF00020E030E0A901C701B6010E94B83587FD95
:10200000C9CF20E030E040E85FE4C701B6010E949C
:10201000483318160CF4BECFC701B6010E948935AB
:10202000CACF69817A818B819C81C5CFCF92DF92A3
:10203000EF92FF92CF93DF9300D000D01F92CDB7E5
:10204000DEB7FC01892B39F094819F77963079F0C7
:1020500028F4943010F570E060E012C0983039F048
:102060009C30C9F7C080D180E280F38027C0808196
:102070009181A281B381BC010097A140B10558F7BD
:10208000CB010F900F900F900F900F90DF91CF9199
:10209000FF90EF90DF90CF900895808191811D8215
:1020A000BE016F5F7F4F0E9487018D818830F9F0FC
:1020B0008C3089F6C980DA80EB80FC8020E030E04B
:1020C000A901C701B6010E94B83587FDC4CF20E041
:1020D0003FEF4FE757E4C701B6010E944833181697
:1020E0000CF4B9CFC701B6010E948935C9CF8981E7
:1020F0009A81AB81BC81BFCFFC01892B51F09481C7
:10210000907898609483408351836283738381E0E5
:10211000089580E00895FC01892B69F094819078FE
:1021200098609483CB01B0E0A0E080839183A28388
:10213000B38381E0089580E00895CF93DF93DC01BD
:10214000ED91FC91119712962D913C91E217F307B6
:10215000B8F4C62FD72FDF018991AD014F5F5F4FD4
:102160009C91891307C0DA018111F6CFCF01DF916D
:10217000CF910895FD018191DF018111FBCFE6CF61
:10218000F0E0E0E0F3CFFC0180819181009799F0CD
:1021900022813381448155812417350718F011823B
:1021A00010820895A9014F5F5F4F53834283820FCE
:1021B000931FFC01608308959F92AF92BF92CF92CC
:1021C000DF92EF92FF920F931F93CF93DF9300D094
:1021D00000D01F92CDB7DEB78C010E943E0FD82EE3
:1021E000F8011186F12CE12C70EFC72EC8010E9476
:1021F0003E0FF8011186D81609F4C1C0811119C02B
:10220000F801E45BFF4F81E090E09183808380E000
:102210000F900F900F900F900F90DF91CF911F9123
:102220000F91FF90EF90DF90CF90BF90AF909F9075
:1022300008958C3509F09EC0C8010E943E0F882386
:10224000F9F2E9E9F1E0853709F088C0F801118673
:1022500064E0962EB12CA12CC8010E943E0F882369
:1022600079F281344CF48053803148F0F801E45B1A
:10227000FF4F82E090E0C9CF8F7D8753F5CF54E0C8
:10228000AA0CBB1C5A95E1F7A82AF80111869A946A
:102290009110E2CFC501985D8115944020F475013D
:1022A00023E0F222A3CFC5019C5D8115944008F57F
:1022B000F3E0BF22C701982F8827990F990F8A2929
:1022C0009B29B0E0A0E01196198280389105A10504
:1022D000B10598F48A835E0123E0A20EB11CF501DA
:1022E00062915F01662309F481CFC8010E94C31087
:1022F000F6CFC501B0E0A0E0E7CF282F2F7320680C
:102300002A8336E0B695A795979587953A95D1F7A4
:102310008032910538F4806C8B835E0184E0A80ED6
:10232000B11CDDCF282F2F7320682B8326E09695D4
:1023300087952A95E1F78031910538F4806E8C837A
:102340005E01E5E0AE0EB11CCACF80688C83CD8201
:102350005E01F6E0AF0EB11CC2CF32969081992398
:1023600009F484CF8913F9CF8181882309F47ECFC2
:10237000F8011186682FC8010E94C31037CF60E0B2
:10238000C8010E94C310F80180819181892B29F432
:10239000E45BFF4F83E090E038CF81E039CFCF930B
:1023A000DF93DC01EB01EC81FD818A819B81089642
:1023B000E817F90730F4F0E0E0E0CF01DF91CF91CA
:1023C00008953897FD83EC833097A9F31296CD9149
:1023D000DC911397209791F0CF018C1B9D0B23E08C
:1023E000959587952A95E1F78D831396FC93EE9347
:1023F00012971582148217821682DFCF1196FC93F2
:10240000EE93F3CFFC012581222339F0F8E02F026F
:1024100090011124820F931F089590E080E00895A9
:10242000FC0101900020E9F73197AF01481B590BDF
:10243000BC018EEE93E00C94CB02CF93DF93EC01C2
:10244000FB0101900020E9F73197AF01461B570BC4
:102450000E94630E2A813B81820F931F9B838A8394
:10246000DF91CF9108950F931F93CF938C01C0E01C
:10247000F8018481C81738F46AEA71E0C8010E9443
:102480001D12CF5FF5CFCF911F910F9108954F92FD
:102490005F926F927F92AF92BF92CF92DF92EF9254
:1024A000FF920F931F93CF93DF93CDB7DEB76B9758
:1024B0000FB6F894DEBF0FBECDBFFC018B01948137
:1024C0009F77963009F462C1A0F49230E0F0943026
:1024D00008F043C14281538160817181C8010E942B
:1024E000630EF80122813381820F931F93838283CD
:1024F000E2C09C3009F443C048F4983009F441C16B
:102500009A3009F430C161EB71E035C0903209F4C2
:10251000E7C09034C1F7E080F18069EB71E0E1142D
:10252000F10449F16CEB71E0C8010E941D12F80141
:1025300084818F5F8483C8010E943312B801C70170
:102540000E944712C7010E9402127C016DEA71E0ED
:10255000892B11F46EEA71E0C8010E941D12E1148A
:10256000F10449F7F801848181508483C8010E94F5
:1025700033126AEB71E0C8010E941D129CC0C0803A
:10258000D180E280F380A7019601C701B6010E94C5
:1025900048338111B8CF20E030E0A901C701B6016E
:1025A0000E944833882379F0A7019601C701B6013C
:1025B0000E941D359B01AC01C701B6010E94483342
:1025C000882309F4A0CF20E030E0A901C701B601BB
:1025D0000E94483387FF08C06DE2C8010E944E0E7A
:1025E000F7FAF094F7F8F0945E0121E1A20EB11C25
:1025F000B701A601C5010E94C40C49895A896B899B
:102600007C89C8010E94A60EFB8CFF20A9F16D8970
:102610007E898F89988D6501EF2C2AE0422E512CFE
:10262000612C712CEA94EFEFEE1659F0A3019201A0
:102630000E94EB34605DF60162936F01B901CA013B
:10264000F1CF8F2D90E0BC0160957095F501E81BEE
:10265000F90B31978EE2808344275527461B570B91
:102660006A0D7B1DC8010E94630EF801228133812F
:10267000820F931F93838283898D9A8D97FF0DC05C
:1026800066EB71E0C8010E941D12698D7A8D71950B
:1026900061957109C8010E946D0E898D9A8D181679
:1026A00019064CF465E6C8010E944E0E698D7A8DBC
:1026B000C8010E946D0E6B960FB6F894DEBF0FBE78
:1026C000CDBFDF91CF911F910F91FF90EF90DF90E1
:1026D000CF90BF90AF907F906F905F904F90089594
:1026E000E080F18060EC71E0E114F10409F443CF83
:1026F00063EC71E0C8010E941D12F80184818F5FB4
:102700008483C8010E943312F70166817781C80172
:102710000E94F90E67EC71E0C8010E941D12B80119
:10272000C7010E944712C7010E9402127C016DEA94
:1027300071E0892B11F46EEA71E0C8010E941D124C
:10274000E114F104F1F6F801848181508483C80119
:102750000E94331261EC71E00ECF60817181C8017B
:102760000E94F90EA8CFC080D180E280F3806DE294
:10277000C8010E944E0EB701A601C8010E94A60E14
:102780009ACF4081518162817381F7CF808191819D
:10279000A281B3816AEC71E0892B8A2B8B2B09F023
:1027A000EACE6FEC71E0E7CECF93DF9300D000D09C
:1027B0001F92CDB7DEB77A8369831C821B821D828C
:1027C000BE016F5F7F4F08960E9447128B819C81EC
:1027D0000F900F900F900F900F90DF91CF91089571
:1027E000CF93DF93CDB7DEB7DA950FB6F894DEBF9F
:1027F0000FBECDBF9E01275F3E4FC95FDE4F4881B0
:102800005981C750D14060E071E0CE0101960E942D
:102810009E30CE0101960E9410128EEA91E00E9435
:102820001012D3950FB6F894DEBF0FBECDBFDF9167
:10283000CF910895CF92DF92EF92FF920F931F9363
:10284000CF93DF93CDB7DEB7C15AD1090FB6F89455
:10285000DEBF0FBECDBF8091E804813009F043C0D8
:102860009E0120553F4FC255DF4F48815981CE5AB6
:10287000D04060E870E0CE0101960E949E300E9438
:10288000FF049B01AC01CF55DF4F1882C15AD040E5
:1028900001E810E00C0F1D1F005E1F4F8AE0C82EDC
:1028A000D12CE12CF12CCA01B901A70196010E949B
:1028B000EB34605DF80162938F012115310541050C
:1028C000510589F7309719F0CF010E9410128BEA59
:1028D00091E00E941012CE0101960E9410128EEA21
:1028E00091E00E941012CF55DF4F0FB6F894DEBF73
:1028F0000FBECDBFDF91CF911F910F91FF90EF9051
:10290000DF90CF900895CF93DF93C4EAD4E099810C
:1029100021E020938E039093B00310928F031092C6
:10292000B103682F8BE894E00E94CC0881E00E94FC
:10293000B606888361E089810E94A6071092410350
:10294000809340038BE894E00E948508DF91CF914B
:102950000895682F616080E00E9425090E94FF04AD
:102960007093AB046093AA0483E10E948314877080
:10297000B9F48091A6049091A704892BA9F30E9431
:10298000FF042091AA043091AB04621B730B809169
:10299000A6049091A7048617970730F780E0089562
:1029A00061E08BE00E94250960E080E00E9425093B
:1029B00081E00895CF93DF93EC0181E00E948314BE
:1029C00084FB992790F9988383FB992790F99A8340
:1029D00082FB992790F9998386FB992790F99B832D
:1029E000881F8827881F8C83DF91CF910895CF930C
:1029F000DF93C4EAD4E0998121E020938E03909381
:102A0000B00310928F031092B103682F8BE894E00B
:102A10000E94CC0881E00E94B606888362E089812A
:102A20000E94A60710924103809340038BE894E034
:102A30000E948508D82F80E0C82F8BE894E00E9480
:102A400085088C2B9D2BDF91CF9108958F929F92BB
:102A5000AF92BF92EF92FF920F931F93CF93DF93AA
:102A60007C01EB0180E50E9483148F5F880F90E06A
:102A70009983888386E40E948314082F10E00F5FF7
:102A80001F4F1D830C83A881B0E020E03FE24AE3A2
:102A900050E00E94A1346C507E4F8F4F9F4F38EE14
:102AA000832E33E0932EA12CB12CA50194010E941A
:102AB000EB34D8010E94AC346C507E4F8F4F9F4F47
:102AC000A50194010E94EB342A873B874C875D87E0
:102AD00081E50E94F7148C01112702C0000F111F1D
:102AE0009A95E2F70F5F1F4F1F830E83A881B0E016
:102AF00020E03FE24AE350E00E94A1346C507E4F58
:102B00008F4F9F4FA50194010E94EB34D8010E9482
:102B1000A1346C507E4F8F4F9F4FA50194010E94AE
:102B2000EB342E873F87488B598B80E70E948314B4
:102B30008F5F880F90E09B838A8381E70E94F71460
:102B40009C01992702C0880F991F3A95E2F70196D8
:102B500099878887F7012381222331F02E813F81D5
:102B6000821B930B99878887AA81B0E020E03FE21F
:102B70004AE350E00E94A1346C507E4F8F4F9F4F2C
:102B800028EE822E23E0922EA12CB12CA5019401D7
:102B90000E94EB34A885B9850E94A1346C507E4F09
:102BA0008F4F9F4FA50194010E94EB342A8B3B8BE2
:102BB0004C8B5D8BDF91CF911F910F91FF90EF9028
:102BC000BF90AF909F908F9008954F925F926F92B9
:102BD0007F928F929F92AF92BF92CF92DF92EF92AD
:102BE000FF920F931F93CF93DF93CDB7DEB76B9711
:102BF0000FB6F894DEBF0FBECDBF6B017C01CE01D6
:102C000047960E94DA14BE016F5F7F4FCE01479650
:102C10000E9426158F89882309F4A1C08B859C8585
:102C2000AD85BE858C57924FAF4FBF4F298D222364
:102C300009F49AC04B855C856D857E854E545D4F49
:102C40006F4F7F4F440F551F661F771F840F951FCF
:102C5000A61FB71F0A8D002361F04F855889698927
:102C60007A894C565D4F6F4F7F4F840F951FA61F7B
:102C7000B71F1B8D112309F484C02C013D0126E2EE
:102C8000420E22E0521E611C711CC414D504E604DD
:102C9000F70408F478C0AB81B0E020E03FE24AE3FB
:102CA00050E00E94A1344B015C0124EF820E21E030
:102CB000921EA11CB11CA7019601241935094609D1
:102CC0005709A8EEB3E00E94A1342B013C01C501D5
:102CD000B40120ED37E040E050E00E94EB34420EBA
:102CE000531E641E751EC501B40128EE33E040E09A
:102CF00050E00E94EB34C301B2010E94EB34002388
:102D000031F08F819885280F391F411D511DCA014F
:102D1000B9010E944A09BC0181E70E94FB08C092E8
:102D2000AD04D092AE04E092AF04F092B004812FD3
:102D30006B960FB6F894DEBF0FBECDBFDF91CF917B
:102D40001F910F91FF90EF90DF90CF90BF90AF90C9
:102D50009F908F907F906F905F904F90089586E343
:102D60009BE0A0E0B0E062CF288D222309F472CF6F
:102D70004B855C856D857E854C565D4F6F4F7F4FD3
:102D800065CF11E0D4CF10E0D2CF0F931F93CF9334
:102D9000DF938B01EC01892BA1F06E817F8160179D
:102DA000710779F00115110541F06115710529F0E0
:102DB000C8010E94F237892B21F0CE010E94021235
:102DC000E9CFCE01DF91CF911F910F9108956F92BE
:102DD0007F928F929F92AF92BF92CF92DF92EF92AB
:102DE000FF920F931F93CF93DF9300D000D01F92D9
:102DF000CDB7DEB78C017B01C42E0E94970FD82E71
:102E0000811102C0D12C8CC1C8010E943E0F8732B3
:102E100009F447C124F5823209F443C1C8010E9474
:102E20003E0F982E5801FCE0AF0EB11CC12C7A2C3D
:102E30008B2C892D0E94260F882309F486C18FE3ED
:102E4000C81609F482C1D80119961C92C394F501E1
:102E500091925F01C8010E943E0F982EEACF8B35F8
:102E600009F461C08B37D1F6F701848180788062E4
:102E700084831182108213821282CC2009F465C0EF
:102E8000D80119961C92C8010E94970F882309F453
:102E9000B9CF6DE7C8010E94860F811141C1CA9464
:102EA000D8011A96ED91FC911B978281938111961E
:102EB0009C938E938481958122813381821B930B15
:102EC00015969C938E93149713961C921E921297AC
:102ED000C8010E943E0F873209F47DC0823209F496
:102EE0007AC0C8010E943E0FB82E0E94260F882388
:102EF00009F46BC0F80111866B2DC8010E94C31044
:102F0000C8010E943E0FB82E0E94260F8111F2CFF9
:102F100060E0C8010E94C310D8018D919C91892B5B
:102F200009F05FC032C0D70114968C911497807855
:102F3000806414968C93149711961C921E9213968B
:102F40001C921E921297C11008C0F801E45BFF4F5B
:102F500085E090E09183808355CFF8011186C80108
:102F60000E94970F882309F44DCF6DE5C8010E9498
:102F7000860F8111D5C0CA94D8011A966D917C91A3
:102F8000C7010E94CF11009731F4F801E45BFF4FB5
:102F900083E090E0DFCF4C2DBC01C8010E94E71612
:102FA000882309F42FCFC8010E94970F882309F4C2
:102FB00029CF6DE5C8010E94860F8111B1C06CE276
:102FC000C8010E94860F8111D7CFF801E45BFF4F43
:102FD00082E090E0BFCFC8010E94DC10882309F492
:102FE00011CFC8010E94970F882309F40BCF6AE321
:102FF000C8010E94860F882341F3F8016081718126
:10300000D7018D919C910E94C516BC01892B49F571
:10301000F80162847384D30112968D909C90B40160
:10302000C3010E949D105C01892B59F4F801828133
:103030009381880D991DD30113969C938E931297BB
:103040005401F80162857385C7010E94CF11FC010C
:10305000892B09F49ACF848180688483B782A68201
:10306000BF014C2DC8010E94E716882309F4CACE7F
:10307000C8010E94970F882309F4C4CE6DE7C801E8
:103080000E94860F81114CC06CE2C8010E94860F1D
:10309000882309F49ACFC8010E94970F811100CFAD
:1030A000B1CED8011A96ED91FC911B978281938144
:1030B00011969C938E938481958122813381821B0A
:1030C000930B15969C938E93149713961C921E92B5
:1030D0001297C8010E94DC10D82E882309F492CEE2
:1030E000F80182849384D4011296AD90BC90B5010E
:1030F000C4010E949D109C01892B59F4F801828122
:1031000093818A0D9B1DD40113969C938E931297E5
:103110009501F701948190789560948331832083A1
:103120008D2D0F900F900F900F900F90DF91CF91FA
:103130001F910F91FF90EF90DF90CF90BF90AF90D5
:103140009F908F907F906F900895F801EC0DF11D86
:103150001486D8011C968C918437B1F4F7018481D0
:1031600080788660848381E090E0A0E0B0E0808396
:103170009183A283B383F4E0CF1691F2F801E45B6C
:10318000FF4F81E090E0E6CE863679F4D7011496C1
:103190008C9114978078866014968C93F701108236
:1031A000118212821382F5E0E7CF8E3621F484E09B
:1031B000C812E4CFB5CF1D82BE016F5F7F4F872D50
:1031C000982D0E9487018D818A3081F08C3001F129
:1031D000883009F0FACE49815A816B817C81D70110
:1031E00014968C911497807888600AC049815A811E
:1031F0006B817C81D70114968C91149780788A60BA
:1032000014968C93F701408351836283738388CF34
:1032100049815A816B817C81D70114968C911497D6
:1032200080788C6014968C93F7014083518362837D
:10323000738376CFEF92FF920F931F93CF93DF9319
:10324000EC018C81982F9F7739F4807880628C8391
:10325000198218821B821A828C8185FF1EC061151B
:103260007105D9F07A018B01888199810E94C51678
:10327000009761F4B701CE010E94CF11009731F0A1
:10328000FC0124812F77248317830683DF91CF915C
:103290001F910F91FF90EF90089590E080E0F6CF9E
:1032A000FC01248125FF04C0808191810C94C51606
:1032B00090E080E0089508960E94501921E0892B43
:1032C00009F420E0822F08950E94E4370F931F93A2
:1032D000CF93DF93EC0188819981009759F02A817F
:1032E0003B812617370730F081E0DF91CF911F91A6
:1032F0000F9108958B016F5F7F4F0E9427370097D2
:1033000059F0998388831B830A832C813D81232B69
:1033100059F7FC011082E8CF80E0E7CFEF92FF92EF
:103320000F931F93CF93DF93EC01198218821B82B6
:103330001A821D821C8261157105E1F08B01FB016F
:1033400001900020E9F731977F01E61AF70AB701EB
:103350000E94661928813981811113C02115310518
:1033600019F0C9010E949E36198218821D821C82A2
:103370001B821A82DF91CF911F910F91FF90EF90E6
:103380000895FD82EC82B801C901DF91CF911F91B0
:103390000F91FF90EF900C94FB37CF92DF92EF925A
:1033A000FF920F931F93CF93DF938C01DC019296D2
:1033B000ED91FC91E80FF91F12826C01B2E0CB0E87
:1033C000D11CC114D10431F1F60101900020E9F7BC
:1033D0003197EC19FD09F1F0DC01ED90FC90D7017B
:1033E0001496CD91DC91CE0FDF1FBE01C7010E9464
:1033F0006619882379F0F7012081318184819581D4
:10340000B601820F931F0E94FB37D7011596DC93FC
:10341000CE931497F80113A212A2DF91CF911F91BE
:103420000F91FF90EF90DF90CF900895CF93DF93AF
:10343000EC018AA19BA19C012F5F3F4F3BA32AA3D4
:10344000FE01E80FF91F62830296809718F0CE0103
:103450000E94CD198CA19DA101969DA38CA3DF9103
:10346000CF910895EF92FF920F931F93CF93DF9325
:10347000EC017B0162E20E94161A8701F80161915A
:103480008F01662391F0E9E9F1E0F280FF2049F035
:10349000329681816813F9CF6CE5CE010E94161A2D
:1034A0006F2DCE010E94161AE9CF62E2CE01DF91A4
:1034B000CF911F910F91FF90EF900C94161ACF921D
:1034C000DF92EF92FF920F931F93CF93DF938C01C4
:1034D0006A01EB017B01E40EF51ECE15DF0599F0C4
:1034E0002991F80182A193A1AC014F5F5F4F53A3D3
:1034F00042A3E80FF91F22830296809770F3C80158
:103500000E94CD19EACFC601DF91CF911F910F9193
:10351000FF90EF90DF90CF900895EF92FF920F937E
:103520001F93CF93DF93CDB7DEB766970FB6F894AE
:10353000DEBF0FBECDBF8C01CB01FE0177969F0190
:103540004AE0E42EF12CB7010E94CD35805D8293D4
:10355000CB010097C1F7A9014E1B5F0BBF01C8014A
:103560000E945F1AF80124A135A1820F931F95A331
:1035700084A366960FB6F894DEBF0FBECDBFDF9171
:10358000CF911F910F91FF90EF9008958F929F928E
:10359000AF92BF92CF92DF92EF92FF920F931F9361
:1035A000CF93DF93CDB7DEB766970FB6F894DEBF43
:1035B0000FBECDBF7C018E01095E1F4F68018AE0FE
:1035C000882E912CA12CB12CCB01BA01A50194011C
:1035D0000E94EB34942F852F605DF80162938F0178
:1035E000A901692F782F411551056105710561F712
:1035F000A6014E1B5F0BBF01C7010E945F1AF701B6
:1036000024A135A1820F931F95A384A366960FB6BC
:10361000F894DEBF0FBECDBFDF91CF911F910F9108
:10362000FF90EF90DF90CF90BF90AF909F908F90E2
:103630000895CF93DF93EC01FB0101900020E9F79F
:103640003197AF01461B570B0E945F1A2CA13DA179
:10365000820F931F9DA38CA3DF91CF9108954F926A
:103660005F926F927F92AF92BF92CF92DF92EF9272
:10367000FF920F931F93CF93DF93CDB7DEB76B9776
:103680000FB6F894DEBF0FBECDBF7C018B01FC01ED
:1036900084818F77863009F435C1A0F48230D8F068
:1036A000843008F016C14281538160817181C80164
:1036B0000E945F1AF80124A135A1820F931F95A3E0
:1036C00084A3C8C08C3051F148F4883009F415C186
:1036D0008A3009F404C161EB71E020C1803209F441
:1036E000D3C08034C1F76BE5C8010E94161AF701F8
:1036F000E080F180E114F10409F4C1C0B801C70110
:103700000E942F1BC7010E9402127C01892B09F421
:10371000B6C06CE2C8010E94161AECCFC080D180FE
:10372000E280F380A7019601C701B6010E944833E9
:103730008111D1CF20E030E0A901C701B6010E947C
:103740004833882379F0A7019601C701B6010E948A
:103750001D359B01AC01C701B6010E944833882387
:1037600009F4B9CF20E030E0A901C701B6010E94F9
:10377000483387FF08C06DE2C8010E94161AF7FAA5
:10378000F094F7F8F0945E01F1E1AF0EB11CB701CF
:10379000A601C5010E94C40C49895A896B897C899C
:1037A000C8010E94C61AFB8CFF20A9F16D897E8991
:1037B0008F89988D6501EF2C2AE0422E512C612CC7
:1037C000712CEA942FEFE21659F0A30192010E94A6
:1037D000EB34605DF60162936F01B901CA01F1CF6C
:1037E0008F2D90E0BC0160957095F501E81BF90BF9
:1037F00031978EE2808344275527461B570B6A0D6D
:103800007B1DC8010E945F1AF80124A135A1820F17
:10381000931F95A384A3898D9A8D97FF0DC066EBA6
:1038200071E0C8010E94191B698D7A8D71956195AF
:103830007109C8010E948D1A898D9A8D1816190672
:103840004CF465E6C8010E94161A698D7A8DC8018C
:103850000E948D1A6B960FB6F894DEBF0FBECDBFD7
:10386000DF91CF911F910F91FF90EF90DF90CF905C
:10387000BF90AF907F906F905F904F9008956DE5EF
:10388000C8010E94161AE6CF6BE7C8010E94161AFB
:10389000F701E080F180E114F104C9F0F7016681DD
:1038A0007781C8010E94321A6AE3C8010E94161A81
:1038B000B801C7010E942F1BC7010E9402127C01A0
:1038C000892B29F06CE2C8010E94161AE4CF6DE73B
:1038D000D7CF60817181C8010E94321ABBCFC080EE
:1038E000D180E280F3806DE2C8010E94161AB70110
:1038F000A601C8010E94C61AADCF408151816281E4
:103900007381F7CF80819181A281B3816AEC71E0EC
:10391000892B8A2B8B2B11F46FEC71E0C8010E946C
:10392000191B98CF85ED8093BC0080918A039091FC
:103930008B03A0918C03B0918D030796A11DB11D3F
:1039400023E0B695A795979587952A95D1F720916D
:10395000BC0024FD03C010928803089540918A039F
:1039600050918B0360918C0370918D03452B462BF6
:10397000472B69F30097A105B10541F025E32A958E
:10398000F1F700000197A109B109E1CF8091890306
:103990000C949506FF920F931F93CF93DF93EC0146
:1039A000F62E08811981C8010E946C34F81621F0A6
:1039B0006F2DC8010E947434CE01DF91CF911F9109
:1039C0000F91FF900895CF92DF92EF92FF920F93A5
:1039D0001F93CF93DF9300D0CDB7DEB76C017C018E
:1039E00005E110E01A830983F70161917F01CE019F
:1039F00001960E94CA1C0F5F1F4F0931110591F7F4
:103A0000C6010F900F90DF91CF911F910F91FF9002
:103A1000EF90DF90CF900895CF93DF9300D0CDB794
:103A2000DEB78093C20428E030E03A832983682F10
:103A3000CE0101960E94CA1C0F900F90DF91CF918A
:103A40000895CF93DF9300D0CDB7DEB78093C30442
:103A500027E030E03A832983682FCE0101960E9447
:103A6000CA1C0F900F90DF91CF910895AF92BF9233
:103A7000CF92DF92EF92FF920F931F93CF93DF933A
:103A800000D0CDB7DEB78B016B0124E0C20ED11C94
:103A90007B015C01A61AB70AC5018E0D9F1D9A8392
:103AA0008983F70161917F01CE0101960E94CA1CB2
:103AB000EC14FD0489F7C8010F900F90DF91CF91AE
:103AC0001F910F91FF90EF90DF90CF90BF90AF903C
:103AD0000895EF92FF920F931F93CF93DF9300D03F
:103AE000CDB7DEB78C017B019A838983FB016081AE
:103AF000CE0101960E94CA1C0F5F1F4F1A830983D3
:103B0000F7016181CE0101960E94CA1CC7010F9086
:103B10000F90DF91CF911F910F91FF90EF9008953B
:103B20008F929F92AF92BF92CF92DF92EF92FF92CD
:103B30000F931F93CF93DF93CDB7DEB7C75FD2400C
:103B40000FB6F894DEBF0FBECDBFCE010E969A839E
:103B500089839C838B832EE032E02C0F3D1F3E83B4
:103B60002D8338872F838D8580788D87C25FDD4FC9
:103B700019821882CE50D240C05FDD4F1982188260
:103B8000C051D240CE5EDD4F19821882C251D24060
:103B90008EEE93E0CC5EDD4F99838883C451D24092
:103BA000C95EDD4F1882C751D2408E010F5F1F4F93
:103BB000C85EDD4F19830883C851D240C65ADD4F15
:103BC00019821882CA55D2404AE0BE01675F7F4F12
:103BD000C9010E94E716C65ADD4F88819981CA55EE
:103BE000D240892BB9F4CA5EDD4F8881C651D240DC
:103BF000882381F08D85982F9F779C3019F08D77E1
:103C0000883041F482E090E0C65ADD4F9983888382
:103C1000CA55D240C65ADD4F88819981CA55D240D3
:103C2000892B09F069C365ED71E0C8010E945B1939
:103C3000F82E8823A1F165ED71E0CE0109960E946E
:103C40005019FC01892B99F094819F77983029F0C5
:103C500080F4992361F0963081F4EE24E39480811E
:103C60009181A281B381892B8A2B8B2BA9F4E12C22
:103C700013C09A3091F39C3011F0EF2C0DC0EE245C
:103C8000E39420E030E0A901608171818281938119
:103C90000E944833882359F38E2D0E94211D6CED1C
:103CA00071E0C8010E945B19E82E8823D1F06CED09
:103CB00071E0CE0109960E9450190E941610CA5058
:103CC000DD4F99838883C65FD2409093C50480936B
:103CD000C404BE016A507D4F85E090E00E94691DDA
:103CE000FE2C69EE71E0C8010E945B19E82E882362
:103CF000D1F069EE71E0CE0109960E9450190E9440
:103D00001610CC50DD4F99838883C45FD2409093C6
:103D1000C7048093C604BE016C507D4F83E090E0E1
:103D20000E94691DFE2C67EF71E0C8010E945B19BB
:103D3000E82E8823D1F067EF71E0CE0109960E944A
:103D400050190E941610CE50DD4F99838883C25FB0
:103D5000D2409093C9048093C804BE016E507D4F39
:103D600081E090E00E94691DFE2C62E072E0C801D3
:103D70000E945B19E82E8823B9F062E072E0CE0160
:103D800009960E9450190E94B50F6093CA0470935F
:103D9000CB048093CC049093CD046AEC74E089E06A
:103DA00090E00E94361DFE2C6FE072E0C8010E9478
:103DB0005B19E82E8823B9F06FE072E0CE01099616
:103DC0000E9450190E94B50F6093D2047093D304DF
:103DD0008093D4049093D50462ED74E081E190E087
:103DE0000E94361DFE2C6AE172E0C8010E945B1938
:103DF000E82E8823B9F06AE172E0CE0109960E94AC
:103E000050190E94B50F6093CE047093CF04809335
:103E1000D0049093D1046EEC74E08DE090E00E94A9
:103E2000361DFE2C68E272E0C8010E945B19E82E84
:103E3000882341F168E272E0CE0109960E94501990
:103E4000FC01892B39F094819F77963071F020F432
:103E50009430C0F580E013C0983039F09C30D1F731
:103E600080809180A280B3804BC080819181A281AB
:103E7000B3818F3F9105A105B10509F058F70E9464
:103E80000C1DFE2C62E372E0C8010E945B19E82E53
:103E9000882309F47BC062E372E0CE0109960E9498
:103EA0005019FC01892B51F094819F77963009F4C9
:103EB00052C008F048C0943008F032C260E070E0B0
:103EC000CB0157C080819181CE5EDD4F1882C251F7
:103ED000D240BE01625F7D4F0E948701CE5EDD4F02
:103EE0008881C251D240883029F18C3009F0B2CF9C
:103EF000C25FDD4F88809980AA80BB80CE50D240BF
:103F000020E030E0A901C501B4010E94B83587FD69
:103F1000A1CF20E030E04FE753E4C501B4010E9497
:103F2000483318160CF496CFC501B4010E948935A8
:103F3000862FA5CFC25FDD4F88819981AA81BB8181
:103F4000CE50D24096CF9A3069F09C3009F424C20A
:103F5000983009F0B3CF60817181828193810E9492
:103F60004D3307C060817181828193810E944D33FE
:103F700090586093D6047093D7048093D80490939C
:103F8000D90486ED94E00E94E31CFE2C6DE372E000
:103F9000C8010E945B19E82E8823B9F06DE372E036
:103FA000CE0109960E9450190E94B50F6093DA0461
:103FB0007093DB048093DC049093DD046AED74E07D
:103FC00089E190E00E94361DFE2C68E472E0C80191
:103FD0000E945B19E82E8823B9F068E472E0CE01F4
:103FE00009960E9450190E94B50F6093DE047093E9
:103FF000DF048093E0049093E1046EED74E08DE1C2
:1040000090E00E94361DFE2C64E572E0C8010E941B
:104010005B19E82E8823B9F064E572E0CE010996B9
:104020000E9450190E94B50F6093E2047093E3045C
:104030008093E4049093E50462EE74E081E290E002
:104040000E94361DFE2C6FE572E0C8010E945B19CC
:10405000E82E882399F06FE572E0CE0109960E9460
:1040600050190E9416109093E7048093E60466EEC0
:1040700074E085E290E00E94691DFE2C6AE672E021
:10408000C8010E945B19882309F433C26AE672E012
:10409000CE0109960E9450196C01009709F481C164
:1040A000FC0184818F778450823008F07AC160816E
:1040B00071816115710509F474C1CE01825F9D4F54
:1040C0000E948E19CE5EDD4F88819981C251D24007
:1040D000892B09F407C1C25FDD4FE880F980CE501B
:1040E000D2406FE672E0C7010E94F237892B09F0D7
:1040F000E4C1F090C304A80165ED71E0CE0109961A
:104100000E941A19FC01892B61F0948190789660C5
:1041100094838F2D90E0B0E0A0E080839183A28310
:10412000B383E090C404F090C504A8016CED71E085
:10413000CE0109960E941A19B7010E948B10E090D7
:10414000C604F090C704A80169EE71E0CE0109969B
:104150000E941A19B7010E948B10E090C804F090D9
:10416000C904A80167EF71E0CE0109960E941A19EF
:10417000B7010E948B10C090CA04D090CB04E0908D
:10418000CC04F090CD04A80162E072E0CE01099663
:104190000E941A19B701A6010E947C10C090D20497
:1041A000D090D304E090D404F090D504A8016FE03F
:1041B00072E0CE0109960E941A19B701A6010E9469
:1041C0007C10C090CE04D090CF04E090D004F0904A
:1041D000D104A8016AE172E0CE0109960E941A1981
:1041E000B701A6010E947C10F090C204A80168E209
:1041F00072E0CE0109960E941A19FC01892B61F028
:1042000094819078986094838F2D90E0B0E0A0E046
:1042100080839183A283B383C090D604D090D704C7
:10422000E090D804F090D904A80162E372E0CE01D6
:1042300009960E941A19FC01892B41F0948190780B
:104240009C609483C082D182E282F382C090DA04BF
:10425000D090DB04E090DC04F090DD04A8016DE375
:1042600072E0CE0109960E941A19B701A6010E94B8
:104270007C10C090DE04D090DF04E090E004F09069
:10428000E104A80168E472E0CE0109960E941A19BF
:10429000B701A6010E947C10C090E204D090E30414
:1042A000E090E404F090E504A80164E572E0CE013A
:1042B00009960E941A19B701A6010E947C10E0908D
:1042C000E604F090E704A8016FE572E0CE010996DC
:1042D0000E941A19B7010E948B106EEE73E0C8019C
:1042E0000E94D413C25FDD4F88819981CE50D240A5
:1042F000009711F00E949E36C950DD4F0FB6F8941A
:10430000DEBF0FBECDBFDF91CF911F910F91FF9008
:10431000EF90DF90CF90BF90AF909F908F900895D7
:1043200080819181CE5EDD4F1882C251D240BE01A4
:10433000625F7D4F0E948701CE5EDD4F8881C25152
:10434000D2408A3071F08C30F1F0883009F0B6CD6F
:10435000C25FDD4F688179818A819B81CE50D240D6
:10436000FECDC25FDD4F88819981AA81BB81CE508D
:10437000D2409C01AD0166277727CB01621B730BEE
:10438000840B950BECCDC25FDD4F688179818A810A
:104390009B81CE50D240EDCD60817181828193812D
:1043A000E8CD7E01F4E1EF1AFDEFFF0A69EA71E062
:1043B000C7010E948E19C853DD4FF982E882C85C9C
:1043C000D240C651DD4F19821882CA5ED24084E2C3
:1043D000FE01E853FD4FDE01AC55BD4F01900D923B
:1043E0008A95E1F784E2FE01EC55FD4FDE01A0580D
:1043F000BD4F01900D928A95E1F784E2FE01E058ED
:10440000FD4FDE01A45ABD4F01900D928A95E1F750
:1044100084E2FE01E45AFD4FDE01A25FBD4F019030
:104420000D928A95E1F7CE5CDD4F19821882C25356
:10443000D240CE01845A9D4F0E94CD19CE018058A2
:104440009D4F0E94CD19C114D10479F1BE01625F64
:104450007D4FC6010E942F1BCE01825F9D4F0E949F
:10446000CD19CE018C559D4F0E94CD19CE01885398
:104470009D4F0E94CD19F70180819181C25FDD4F70
:1044800099838883CE50D24082819381C05FDD4F73
:1044900099838883C051D24084819581CE5EDD4F5F
:1044A00099838883C251D2400DCE61EB71E0CE0179
:1044B000825F9D4F0E94191BCFCF6AE772E0C70150
:1044C0000E94F237892B09F00DCFA8016AE772E04C
:1044D000CE0109960E941A19FC01892B09F4FDCE20
:1044E000948190789460948382E892E091838083B1
:1044F000F4CEFF2009F400CFA80168E872E0CE01F5
:1045000009960E941A19FC01892B41F09481907838
:10451000946094838FE892E0918380836EEE73E0E1
:10452000C8010E94D413E8CE1F920F920FB60F92CB
:1045300011242F933F934F935F936F937F938F93A8
:104540009F93AF93BF93EF93FF938EEE93E00E9400
:104550004903FF91EF91BF91AF919F918F917F910F
:104560006F915F914F913F912F910F900FBE0F90E0
:104570001F9018951F920F920FB60F9211242F9330
:104580008F939F93EF93FF93E091FE03F091FF03CE
:104590008081E0910404F091050482FD1BC09081AC
:1045A000809107048F5F8F7320910804821741F078
:1045B000E0910704F0E0E251FC4F958F80930704EF
:1045C000FF91EF919F918F912F910F900FBE0F90C0
:1045D0001F9018958081F4CF1F920F920FB60F9203
:1045E00011242F933F938F939F93AF93BF93809109
:1045F000D9029091DA02A091DB02B091DC023091F5
:10460000D80223E0230F2D3758F50196A11DB11DC7
:104610002093D8028093D9029093DA02A093DB0210
:10462000B093DC028091DD029091DE02A091DF0266
:10463000B091E0020196A11DB11D8093DD0290931F
:10464000DE02A093DF02B093E002BF91AF919F9191
:104650008F913F912F910F900FBE0F901F90189543
:1046600026E8230F0296A11DB11DD2CF1F920F92F3
:104670000FB60F9211242F933F934F935F936F9335
:104680007F938F939F93AF93BF93EF93FF9380910B
:10469000B900887F803609F44AC0F0F5883209F401
:1046A000A7C018F5803109F49BC0B8F4882309F439
:1046B000F9C0883009F494C0FF91EF91BF91AF9198
:1046C0009F918F917F916F915F914F913F912F912A
:1046D0000F900FBE0F901F901895883109F488C075
:1046E000803251F78093860314C0803409F49DC052
:1046F00040F48033B9F38833F9F68093860385EC70
:10470000B0C0803509F485C0883509F496C0883476
:1047100099F60E94921CD0CF883909F48CC038F5E4
:10472000883729F050F4883611F0803729F683E075
:10473000809388031092D70257C0883809F47BC051
:10474000803919F0803809F0B7CF8091D7028032D4
:1047500008F071C0E091D70281E08E0F8093D702FC
:104760008091BB00F0E0E954FD4F80833DC0803B69
:1047700039F0E0F4803A09F479C0883A09F09CCF26
:1047800084E0809388031092B6021092B502E09103
:10479000FE02F091FF0209958091B50281110FC0D0
:1047A00081E08093B5021092950209C0803C09F423
:1047B000A6CF883C09F4A3CF883B09F07DCFE091D8
:1047C000B60281E08E0F8093B602F0E0EB56FD4F0B
:1047D00080818093BB009091B6028091B50229C080
:1047E000809163038093BB0085EC8093BC0064CF11
:1047F0009091850380918403981758F5E091850383
:1048000081E08E0F80938503F0E0EC59FC4F8081AE
:10481000E9CFE091850381E08E0F8093850380913D
:10482000BB00F0E0EC59FC4F8083909185038091B0
:1048300084039817C8F285E8D8CFE091850381E01A
:104840008E0F809385038091BB00F0E0EC59FC4F04
:1048500080838091870381115CCF81E08093620324
:1048600084EA8093BC001092880326CF85EC809365
:10487000BC00109288038091D702803230F4E0911E
:10488000D702F0E0E954FD4F10826091D70270E04A
:10489000E091FC02F091FD0287EB92E00995109205
:1048A000D7020ACF1092860334CFCF92DF92EF92D5
:1048B000FF920F931F93CF93DF93EB017B0124E0D3
:1048C000E20EF11C8B016C01C61AD70AC601800FDB
:1048D000911F0E946C34F80181938F01EE15FF0542
:1048E000A9F7CE01DF91CF911F910F91FF90EF902B
:1048F000DF90CF9008950F931F93CF93DF938C0198
:10490000EB010E946C348883C80101960E946C34CC
:104910008983CE01DF91CF911F910F910895CF939D
:10492000DF93EB010E946C348883CE01DF91CF913D
:104930000895CF92DF92EF92FF92CF93DF9300D052
:1049400000D000D01F92CDB7DEB71092F1031092C5
:10495000F00388EEC82E83E0D82EE12CF12CC09213
:10496000F203D092F303E092F403F092F50389E7A7
:1049700091E09093EF038093EE0385EC90E09093A9
:10498000FB038093FA0384EC90E09093FD03809303
:10499000FC0380EC90E09093FF038093FE0381EC96
:1049A00090E0909301048093000482EC90E0909357
:1049B00003048093020486EC90E0909305048093B6
:1049C0000404109207041092080410920904109233
:1049D0000A0410928E0410928D04C0928F04D0921B
:1049E0009004E0929104F09292048BE891E090930D
:1049F0008C0480938B048FEF80939704109299041A
:104A0000109298041092A3041092A2048FEF9FEFCB
:104A1000DC0180939E0490939F04A093A004B09324
:104A2000A10489E28093A5041092A7041092A60421
:104A30001092A8041092A9041092E804BE01695FC4
:104A40007F4F90E080E00E948F248F81873109F4AE
:104A5000E5C087E18F831A82198267E1CE01019652
:104A60000E94CA1C80EB94E09A8389839093C904C6
:104A70008093C804BE016F5F7F4F81E090E00E9489
:104A8000691D88EE93E09C838B839093C704809389
:104A9000C604BE016D5F7F4F83E090E00E94691DF8
:104AA00080E293E09E838D839093C5048093C40439
:104AB000BE016B5F7F4F85E090E00E94691D81E041
:104AC0000E94211D80E00E940C1D80E090E0AFEF6D
:104AD000B0E08093CA049093CB04A093CC04B0932D
:104AE000CD046AEC74E089E090E00E94361D80E01D
:104AF0009FEFAFEFB0E08093CE049093CF04A093EC
:104B0000D004B093D1046EEC74E08DE090E00E948C
:104B1000361D80E09FEFA0E0B0E08093D204909338
:104B2000D304A093D404B093D50462ED74E081E182
:104B300090E00E94361D8DEC9CECACE4BDE38093CC
:104B4000D6049093D704A093D804B093D90486EDEB
:104B500094E00E94E31C88EC90E0A0E0B0E0809339
:104B6000DA049093DB04A093DC04B093DD046AEDD7
:104B700074E089E190E00E94361D80ED97E0A0E0AE
:104B8000B0E08093DE049093DF04A093E004B09340
:104B9000E1046EED74E08DE190E00E94361DC0925C
:104BA000E204D092E304E092E404F092E50462EEC1
:104BB00074E081E290E00E94361D84E690E09093DC
:104BC000E7048093E60466EE74E085E290E00E94DC
:104BD000691D8DEB94E00E9474091092B404109248
:104BE000B6041092B5041092B9041092BA0410924F
:104BF000BB041092BC041092B1041092B204109243
:104C0000B30427960FB6F894DEBF0FBECDBFDF9179
:104C1000CF91FF90EF90DF90CF90089568EC74E013
:104C200081E090E00E947B2466EC74E083E090E0F9
:104C30000E947B2464EC74E085E090E00E947B2479
:104C400087E090E00E946C348093C30462EC74E0CF
:104C500088E090E00E948F246AEC74E089E090E0A4
:104C60000E9455246EEC74E08DE090E00E94552483
:104C700062ED74E081E190E00E94552485E190E0CE
:104C80000E946C348093D60486E190E00E946C34DC
:104C90008093D70487E190E00E946C348093D8041D
:104CA00088E190E00E946C348093D9046AED74E04E
:104CB00089E190E00E9455246EED74E08DE190E072
:104CC0000E94552462EE74E081E290E00E94552437
:104CD00066EE74E085E290E00E947B247ACFCF9369
:104CE000DF93CDB7DEB7A3970FB6F894DEBF0FBE44
:104CF000CDBF789484B5826084BD84B5816084BD65
:104D000085B5826085BD85B5816085BD80916E0069
:104D1000816080936E00109281008091810082609A
:104D200080938100809181008160809381008091D7
:104D300080008160809380008091B10084608093C6
:104D4000B1008091B00081608093B00080917A00C2
:104D5000846080937A0080917A00826080937A00E8
:104D600080917A00816080937A0080917A008068D7
:104D700080937A001092C10061E08DE00E946C0483
:104D80008091F402811145C01092E6021092E50272
:104D90008FEF8093E9028093EA028093EB02809385
:104DA000EC028093ED028093EE0281E08093EF02AB
:104DB0001092F1021092F0021092E8021092E702B3
:104DC0008091B8039091B903892B31F483EE92E07E
:104DD0009093B9038093B803E091E102F091E2026D
:104DE000309721F083EE92E09583848383EE92E006
:104DF0009093E2028093E1021092F3021092F20289
:104E000087E391E09093E4028093E30281E0809352
:104E1000F402209A8EEB93E09093E6028093E502F1
:104E200080E190E09093F1028093F00280919A04E7
:104E300090919B04A0919C04B0919D04843C29E036
:104E40009207A105B10520F484EC99E0A0E0B0E060
:104E500080939A0490939B04A0939C04B0939D0428
:104E60009091C204E091FE03F091FF0382E0808301
:104E7000E091FA03F091FB031082E091FC03F091C2
:104E8000FD0380E1808310920604E0910204F0911A
:104E9000030486E08083E0910004F09101048081A6
:104EA00080618083E0910004F0910104808188603A
:104EB0008083E0910004F091010480818068808308
:104EC000E0910004F091010480818F7D80839093B4
:104ED000E80461E086E00E946C0461E086E00E94E4
:104EE0002A0462E082E00E946C0482E892E09F93D0
:104EF0008F9382E291E09F938F9308EE14E01F93CB
:104F00000F930E941A148CE091E09F938F931F934C
:104F10000F930E941A1461E081E10E946C0465E025
:104F200070E080E090E00E94CD0460E081E10E94AA
:104F30006C046AE070E080E090E00E94CD04109282
:104F400041031092400310928F031092B1030E940C
:104F5000770686EC92E09093FF028093FE0287EC46
:104F600092E09093FD028093FC028CE08093B80065
:104F700084EF91E09093A7048093A6040FB6F89471
:104F8000DEBF0FBECDBFBAE0BB2ECC24C394D12C64
:104F900080EC0E9483148E3E09F086C089E80E944E
:104FA0008314682F616089E80E94250960E088E821
:104FB0000E94250961E080E80E94250961E08FEFE9
:104FC0000E94250960E080E00E94250981E90E9495
:104FD00083148093AC0461E080E00E94250960E0C6
:104FE0008FEF0E94250960E080E80E94250980E695
:104FF0000E948314682F626180E60E94250960E2A6
:1050000070E084E40E94FB086FEF81E00E942509B4
:1050100061E080E80E94250961E08FEF0E94250988
:1050200060E080E00E94250966E08FEF0E9425097C
:1050300083E80E948314682F646083E80E94250936
:1050400067E08FEF0E94250961E081E80E94250951
:1050500061E080E80E9425096BE684E90E94250949
:1050600060E083E80E9425090E94FF047093AB046E
:105070006093AA0483E80E948314811158C0809130
:10508000A6049091A704892BA9F30E94FF04209104
:10509000AA043091AB04621B730B8091A60490911B
:1050A000A7048617970730F764E670E080E090E089
:1050B0000E94CD04BA94B1106BCF85EE90E09F931F
:1050C0008F9388EE94E09F938F930E941A140F9011
:1050D0000F900F900F901FEF00E80E945804198264
:1050E0001A821B83CE0101960E940B0568EE73E0C5
:1050F00080E090E00E94CD0419820A831B82CE01D9
:1051000001960E940B0560ED77E080E090E00E9440
:10511000CD0419831A821B82CE0101960E940B05D1
:1051200064EF71E080E090E00E94CD04D6CF61E0B2
:1051300083E80E94250982E90E948314A82E60E07A
:1051400081E80E94250966E08FEF0E94250983E827
:105150000E948314682F6B7F83E80E94250961E019
:105160008FEF0E94250961E080E00E94250960E040
:105170008FEF0E94250960E080E80E942509809158
:10518000A50491E090938E038093B00310928F0357
:105190001092B10360EB8BE894E00E94CC0881E0B0
:1051A0000E94B6068093A40466E08091A5040E9444
:1051B000A60710924103809340037E0197E1E90E18
:1051C000F11C4701A7E07A2E87017A94772041F0FD
:1051D0008BE894E00E948508D4018D934D01F5CFB2
:1051E00061E08FEF0E94250960E08FE40E942509AD
:1051F0006CE28EE40E94250960E08FEF0E94250991
:1052000064EB86EB0E9425097CE0A7FE70E060E07D
:1052100090E08A2D8F77492F46954695469550E028
:10522000F701E40FF51F2081A92FA770971710F041
:1052300086132BC0F701E40FF51FA60101C0440F30
:10524000AA95EAF74095242320839F5F903319F7AE
:105250008091A50491E090938E038093B003109207
:105260008F031092B10360EB8BE894E00E94CC08AE
:10527000F7E0AF2EAA94AA2091F0F70161917F0187
:105280008BE894E00E94CC08F5CF30E002C0359561
:105290002795AA95E2F720FFD8CF6F5FD6CF81E0A0
:1052A0000E94B6068093A40461E08FEF0E94250956
:1052B00060E080E00E94250960E08FEF0E942509F0
:1052C00060E089E00E94250960E080E10E942509F4
:1052D00060E081E10E94250961E084E20E942509E5
:1052E0006FEF85E20E94250960E085E70E942509AD
:1052F00061E08FEF0E9425096CE28EE40E9425098F
:1053000060E088E40E94250960E280E30E942509AC
:1053100060E08FEF0E94250969E080E30E94250983
:1053200060E084E50E94250964E081E30E9425098C
:1053300063E082E30E94250963E880E40E94250976
:1053400065E286E40E94250960E080E60E94250966
:1053500060E087E20E94250966E080E50E94250959
:1053600060E081E50E94250966E982E50E94250941
:1053700068E086E50E94250960E387E50E9425092B
:1053800060E081E60E94250960E082E60E9425092E
:1053900060E084E60E94250960E085E60E94250918
:1053A00060EA86E60E94250961E08FEF0E942509E8
:1053B00062E382E20E94250964E187E40E942509F4
:1053C0006FEF89E40E94250960E08AE40E942509C4
:1053D00060E08FEF0E9425096AE08AE70E942509B4
:1053E00060E08BE70E94250961E288E70E942509B9
:1053F00061E08FEF0E94250964E383E20E942509A2
:1054000060E082E40E9425096FEF84E40E94250990
:1054100066E285E40E94250965E086E40E9425098C
:1054200060E480E40E94250966E08EE00E94250980
:105430006AE180E20E94250960E483E40E94250974
:1054400060E08FEF0E94250963E084E30E94250954
:1054500064E485E30E94250961E08FEF0E9425093D
:1054600064E081E30E94250969E08BE40E9425093C
:1054700065E08CE40E94250964E08DE40E94250922
:1054800060E08FEF0E94250960E084E40E94250916
:1054900060E285E40E94250968E087E40E9425090E
:1054A00068E288E40E94250960E087E60E942509F9
:1054B00064E080E70E94250961E081E70E942509F8
:1054C0006EEF82E70E94250960E086E70E942509C9
:1054D00060E087E70E94250961E08FEF0E942509BF
:1054E00061E08DE00E94250960E08FEF0E942509B0
:1054F00061E080E80E94250968EF81E00E942509AB
:1055000061E08FEF0E94250961E08EE80E94250985
:1055100061E080E00E94250960E08FEF0E9425098C
:1055200060E080E80E94250964E08AE00E94250985
:1055300084E80E948314682F6F7E84E80E94250906
:1055400061E08BE00E942509CE014D960E94DA149D
:10555000BE016F5F7F4FCE014D960E9426158D8D47
:10556000882309F48CC18B859C85AD85BE858C57BD
:10557000924FAF4FBF4F2F8D222309F485C14B852A
:105580005C856D857E854E545D4F6F4F7F4F440F18
:10559000551F661F771F840F951FA61FB71F28A1D1
:1055A000222361F04F85588969897A894C565D4F6D
:1055B0006F4F7F4F840F951FA61FB71F29A122236E
:1055C00061F04B895C896D897E894A5D5D4F6F4FC3
:1055D0007F4F840F951FA61FB71F8093AD04909334
:1055E000AE04A093AF04B093B00468EE81E00E94D3
:1055F00025096091AD047091AE048091AF04909143
:10560000B0046032FEE47F078105910510F00E942E
:10561000E51561E081E00E94250980E40E94A9145B
:10562000882309F441CD62E081E00E94250980E0F1
:105630000E94A914E82E882309F436CD68EE81E093
:105640000E9425096CE070E084E40E94FB08C80118
:105650000E94DA14BE016F5F7F4FC8010E942615B9
:1056600060E587E50E94250968E086E50E94250936
:1056700068E080E50E9425092F85388949895A8983
:10568000A8EEB3E00E94A134625F79478F4F9F4F2D
:105690005CE1852E5CE0952EAA24A394B12CA50193
:1056A00094010E94EB34CA01B9010E944A09BC016D
:1056B00081E50E94FB082B853C854D855E85A8EE23
:1056C000B3E00E94A134625F79478F4F9F4FA501DD
:1056D00094010E94EB34213041E0340710F020E0C7
:1056E00031E06FEF620F86E40E9425096091AD04FE
:1056F0007091AE048091AF049091B0046032AEE43A
:105700007A078105910510F00E94E51581E00E945D
:105710008314F82E62E081E00E94250980E00E9457
:10572000A9146F2D81E00E942509C8010E94DA1496
:10573000BE016F5F7F4FC8010E94261568E488E4B0
:105740000E94250968E087E40E94250963E082E35E
:105750000E94250967E080E30E94250961E08FEF40
:105760000E94250960E280E30E94250960E08FEF36
:105770000E94250966E080E70E9425092B893C8963
:105780004D895E89A8EEB3E00E94A1346C5B774935
:105790008F4F9F4F28E830ED40E050E00E94EB34FF
:1057A000B9018A8D882321F06F817885620F731F7C
:1057B00090E080E00E944A09BC0181E70E94FB085A
:1057C0006091AD047091AE048091AF049091B004EB
:1057D0006032BEE47B078105910510F00E94E5155B
:1057E00081E00E948314182F62E081E00E94250965
:1057F00080E00E94A914612F81E00E94250960E2E7
:105800007EE480E090E00E94E51582EC90E09F93BA
:105810008F9388EE94E09F938F930E941A140F90B9
:105820000F900F900F9008EE14E0FF24F3942224C1
:105830002A94322C80913803811106C084E393E0CE
:105840000E947409F09238034090D6045090D70417
:105850006090D8047090D9041092B6041092B504E8
:10586000D090A904E1E0DE1609F447C0DE16C8F0C6
:10587000F2E0DF1609F44CC01092A9043BC086E3A5
:105880009BE0A0E0B0E077CE2E8D222309F487CEF6
:105890004B855C856D857E854C565D4F6F4F7F4F88
:1058A0007ACE0E94FF047093AB046093AA0461E077
:1058B00080E80E94250961E08FEF0E94250960E0E1
:1058C00080E00E9425096091AC0481E90E942509CD
:1058D00061E080E00E94250960E08FEF0E942509C9
:1058E00060E080E80E94250961E080E00E942509CF
:1058F000F092A9041092B40453C080E00E94831473
:1059000080FF84C08091A6049091A704892B11F494
:10591000D12C18C00E94FF042091AA043091AB043E
:10592000621B730B8091A6049091A70486179707BA
:1059300078F7D092A8043092B6042092B504109261
:10594000A904DE2C83E10E948314877009F068C0EB
:105950008091A6049091A704892B09F46DC00E9440
:10596000FF042091AA043091AB04621B730B809159
:10597000A6049091A7048617970708F05DC0F092DF
:10598000A8043092B6042092B5041092A904F092B3
:10599000B4048091B5049091B604892B09F4AACF80
:1059A0008091B404882309F44BC08091A80410921C
:1059B000A80481110DC18090B9049090BA04A09000
:1059C000BB04B090BC046091B5047091B60490E043
:1059D00080E00E944D33A50194010E941C35A30173
:1059E00092010E94AE33A50194010E941D3560937F
:1059F000B9047093BA048093BB049093BC040E94D2
:105A000089357093B8046093B7041AC00E94FF04EC
:105A10007093AB046093AA0422E02093A90478CF8A
:105A20008EE10E94F7149093B6048093B50461E070
:105A30008BE00E942509A9CFD092B404D110A9CF40
:105A400082E00E94010421E0009709F020E0209309
:105A5000C104892BC9F40E94FF048090BD0490907A
:105A6000BE04A090BF04B090C004681979098A09E7
:105A70009B09653F71408105910510F41092C104A6
:105A80008DEB94E00E9474098EEE93E00E9429034E
:105A9000892B11F00E94901D8091C2048093E8042C
:105AA00080913303833009F42CC108F09EC0882311
:105AB00009F4A7C0813009F4E8C084E0809333037F
:105AC0000E94FF048090340390903503A090360329
:105AD000B0903703681979098A099B09693E7340B8
